:100000000C942A000C9447000C9447000C94470071
:100010000C9447000C9447000C9447000C94470044
:100020000C9447000C9447000C9447000C94470034
:100030000C9447000C9447000C9447000C94470024
:100040000C9447000C9447000C9447000C94470014
:100050000C94470011241FBECFE5D8E0DEBFCDBF12
:1000600011E0A0E6B0E0EEE3FEE002C005900D92E4
:10007000AE31B107D9F711E0AEE1B1E001C01D9298
:10008000AE31B107E1F70E9449000C941D070C94B2
:100090000000CF93DF9300D000D00F92CDB7DEB732
:1000A0000E943F050E94A50384E68D8380E290E0D4
:1000B0000E94F6068F3FB9F580E690E00E94EE03BD
:1000C00001E210E00F2EFFEDEF2EF02DE00ECE013D
:1000D00005960E9425028D818436C9F381E06E2D3C
:1000E0000E94D3038D810E94DE028FEF94E3ACE087
:1000F00081509040A040E1F700C0000081E06E2DEB
:100100000E94D3038AE20E94DE02C8016D810E9430
:10011000EC060F5F1F4F05321105A1F680E290E05B
:1001200060E00E94EC065524689451F80F2EF5E02B
:10013000EF2EFF24F02DEC0EFD1E0F2EFBEA6F2E8E
:10014000F0E07F2EF02D3E2C2F2C81E00E94410309
:1001500084E68D838EE690E00E94EE0381E060E00D
:100160000E94D30387E790E00E94EE03C7010E943C
:1001700025028D818436D1F38FEF9BEDA5E0815070
:100180009040A040E1F700C000008D81813309F06C
:10019000A1C081E00E94410380E890E00E94EE034C
:1001A000CC24DD244C2C01E010E00C0F1D1F0C0DA5
:1001B0001D1D9C2C8D2CC8010E942502A92CB82C39
:1001C000D8018C918436B9F381E0642D0E94D30369
:1001D000E1E0F0E0EC0FFD1FEA0DFB1D80810E94C5
:1001E000DE028FEF94E3ACE081509040A040E1F755
:1001F00000C0000081E0642D0E94D3038AE20E94C7
:10020000DE020894C11CD11C94E0C916D10451F639
:1002100081E290E00E94F6069981891729F582E231
:1002200090E00E94F6069A818917F1F483E290E04B
:100230000E94F6069B818917B9F484E290E00E943F
:10024000F6069C81891781F481E00E94410380E9D0
:1002500090E00E94EE0381E060E00E94D3038FE90A
:1002600090E00E94EE03EDC05A9421F181E00E94DB
:100270004103C3010E94EE038FEF99E6A8E181508C
:100280009040A040E1F700C0000081E00E944103DF
:100290008AEB90E00E94EE03852D805D0E94DE02D5
:1002A0008FEF99E6A8E181509040A040E1F700C0AF
:1002B00000004BCF81E00E9441038BEA90E00E9456
:1002C000EE0381E060E00E94D30386EC90E00E94A0
:1002D000EE03B7C0823309F0A3C081E00E9441035E
:1002E00082ED90E00E94EE03AA24BB244A2C01E098
:1002F00010E00C0F1D1F0A0D1B1D9A2C8B2CC80122
:100300000E942502C92CD82CD8018C918436B9F3CF
:1003100081E0642D0E94D303E1E0F0E0EC0FFD1FCB
:10032000EC0DFD1D80810E94DE028FEF94E3ACE0B6
:1003300081509040A040E1F700C0000081E0642DB2
:100340000E94D3038AE20E94DE020894A11CB11C21
:1003500094E0A916B10451F681E290E00E94F606FD
:100360009981891709F04CC082E290E00E94F6065C
:100370009A81891709F044C083E290E00E94F60652
:100380009B818917E9F584E290E00E94F6069C8142
:100390008917B1F581E00E94410380EE90E00E9450
:1003A000EE0301E210E00F2EFFEDCF2EF02DC00E78
:1003B000832D922D0E9425028D818436C9F381E020
:1003C0006C2D0E94D3038D810E94DE028FEF94E397
:1003D000ACE081509040A040E1F700C0000081E017
:1003E0006C2D0E94D3038AE20E94DE02C8016D8157
:1003F0000E94EC060F5F1F4F05321105A1F6A5CE36
:1004000081E00E944103C3010E94EE038FEF99E651
:10041000A8E181509040A040E1F700C0000095CED7
:1004200081E00E9441038EEE90E00E94EE038FEF88
:1004300099E6A8E181509040A040E1F700C000009B
:1004400084CEFFCF0E94420508952F923F924F9293
:100450005F926F927F928F929F92AF92BF92CF9254
:10046000DF92EF92FF920F931F93CF93DF93CDB75D
:10047000DEB727970FB6F894DEBF0FBECDBF1C01C5
:100480001982009709F46DC084E6F10180830F2E74
:10049000F3E0AF2EF1E0BF2EF02D0F2EF7E08F2E00
:1004A000F1E09F2EF02D662477243D822C827F82FE
:1004B0006E8215019B828A82F5018081F401608140
:1004C00040E00E944E050F2EFBEFEF2EF0E0FF2ED6
:1004D000F02D0F2EFFEFCF2EF0E0DF2EF02D00E0FD
:1004E00010E0F60161916F01F70181917F01AE018A
:1004F0004F5F5F4F0E94E4058981882381F48E81DC
:100500009F81880F991F880F991F800F911F855F0A
:100510009E4FFC018081EC81FD81808305C00F5FCF
:100520001F4F04301105E9F60894A11CB11C089472
:10053000811C911CF1018081EA81FB81608141E095
:100540000E944E05EC81FD818081843661F408941F
:10055000611C711CF4E06F16710409F0A8CF80E0F3
:1005600003C081E001C080E027960FB6F894DEBF9B
:100570000FBECDBFDF91CF911F910F91FF90EF90F4
:10058000DF90CF90BF90AF909F908F907F906F90B3
:100590005F904F903F902F90089580E062E041E09F
:1005A0000E944E0589EF90E00197F1F700C000002E
:1005B00080E062E040E00E944E050895CF93C82F8E
:1005C00080E060E041E00E944E0580E061E040E0B4
:1005D0000E944E054C2F42954F70417081E064E0BF
:1005E0000E944E054C2F429546954770417081E020
:1005F00065E00E944E054C2F429546954695437006
:10060000417081E066E00E944E054C2F441F442754
:10061000441F81E067E00E944E050E94CD0280E009
:1006200060E041E00E944E0580E061E040E00E9411
:100630004E054C2F417081E064E00E944E054C2F26
:100640004695417081E065E00E944E054C2F46952D
:100650004695417081E066E00E944E05C695C695BC
:10066000C6954C2F417081E067E00E944E050E94C4
:10067000CD0287EB9BE00197F1F700C00000CF911E
:100680000895CF93C82F80E060E040E00E944E05BF
:1006900080E061E040E00E944E054C2F42954F7093
:1006A000417081E064E00E944E054C2F42954695D2
:1006B0004770417081E065E00E944E054C2F4295E5
:1006C000469546954370417081E066E00E944E0574
:1006D0004C2F441F4427441F81E067E00E944E05D1
:1006E0000E94CD0280E060E040E00E944E0580E084
:1006F00061E040E00E944E054C2F417081E064E0D3
:100700000E944E054C2F4695417081E065E00E94A5
:100710004E054C2F46954695417081E066E00E945B
:100720004E05C695C695C6954C2F417081E067E091
:100730000E944E050E94CD0287EB9BE00197F1F7E6
:1007400000C0000080E0CF9108958FE39FE1019702
:10075000F1F700C0000082E00E94410388E20E949D
:10076000410389EF90E00197F1F700C000008CE0B1
:100770000E94410389EF90E00197F1F700C000006B
:1007800081E00E94410383EF91E00197F1F700C0FF
:10079000000086E00E94410385ED96E00197F1F7A5
:1007A00000C000000895823098F4603198F48823E6
:1007B00019F0813089F406C0862F80580E944103C9
:1007C00080E00895862F80540E94410380E00895C0
:1007D00081E0089581E0089580E00895CF93DF934C
:1007E000EC01009751F08881882349F021960E94FE
:1007F000DE0289918823D9F703C081E001C080E03F
:10080000DF91CF910895DF92EF92FF920F931F93A4
:10081000CF93DF93EC01F62EE42ED22E009741F118
:1008200087E0861738F191E0941730F18FE0821756
:1008300028F1862F880F880F880F805C0E94410363
:100840008E01085F1F4F89910E94DE0281EE94E0C5
:100850000197F1F700C00000C017D107A1F78E2D56
:100860006D2D0E94D3038F2D0E94DE0280E007C011
:1008700081E005C081E003C081E001C081E0DF913B
:10088000CF911F910F91FF90EF90DF9008958F927D
:100890009F92AF92BF92FF920F931F93CF93DF93DC
:1008A000CDB7DEB72F970FB6F894DEBF0FBECDBF22
:1008B0008B019C01611571058105910521F480E38F
:1008C0000E94DE0233C0FF240F2EFAE08F2EF0E0EC
:1008D0009F2EF0E0AF2EF0E0BF2EF02DC901B80141
:1008E000A50194010E94FB0689019A01E1E0F0E074
:1008F000EC0FFD1FEF0DF11D6083F3940115110541
:100900002105310559F71F2D115082F0E12FFF27E6
:10091000E7FDF09581E090E08C0F9D1FE80FF91F37
:100920008081805D0E94DE02115082F72F960FB603
:10093000F894DEBF0FBECDBFDF91CF911F910F9115
:10094000FF90BF90AF909F908F900895DF92EF92AD
:10095000FF920F931F93CF93DF9383E50E94DE02F4
:1009600081E061E00E94D30385E40E94DE0280E022
:1009700062E00E94D30389E40E94DE0281E063E02A
:100980000E94D30386E40E94DE028FE493EC019779
:10099000F1F700C0000080E10E944103DD24C4E0C3
:1009A000D0E0EE24E39480E00E94DE02DD2031F40A
:1009B0008D2F6C2F0E94D303DE2C06C0DE25CF5F67
:1009C0008D2F6C2F0E94D30386E40E94DE0287EAFB
:1009D00091E60197F1F700C000000F2EFEEFFF2E09
:1009E000F02DFC0E8D2F6F2D0E94D30380E00E940E
:1009F000DE021D2F1E256C2F6150812F0E94D30314
:100A000089E40E94DE0287EA91E60197F1F700C0CF
:100A100000000C2F0350812F602F0E94D30380E031
:100A20000E94DE028D2F6F2D0E94D30385E40E9469
:100A3000DE0287EA91E60197F1F700C000006C2F13
:100A400064508D2F0E94D30380E00E94DE02812F2C
:100A5000602F0E94D30383E50E94DE0287EA91E6BD
:100A60000197F1F700C00000C33108F49CCFDF917B
:100A7000CF911F910F91FF90EF90DF9008950E940A
:100A8000420508958FEF8ABB87BB84BB90EF91BB73
:100A90001BBA18BA85BB8FE082BB0895843008F07A
:100AA0008BC0683008F08AC0423008F089C08130BD
:100AB00041F1813038F0823009F441C0833009F0CF
:100AC00081C05BC0413071F42BB381E090E0AC0198
:100AD00002C0440F551F6A95E2F7BA01622B6BBB47
:100AE00080E008952BB381E090E0AC0102C0440F98
:100AF000551F6A95E2F7BA01609562236BBB80E0EF
:100B00000895413069F448B321E030E0C90102C0E2
:100B1000880F991F6A95E2F7842B88BB80E00895BF
:100B200028B381E090E0AC0102C0440F551F6A95E4
:100B3000E2F7BA016095622368BB80E00895413016
:100B400069F445B321E030E0C90102C0880F991F64
:100B50006A95E2F7842B85BB80E0089525B381E098
:100B600090E0AC0102C0440F551F6A95E2F7BA014C
:100B70006095622365BB80E00895413071F422B333
:100B800081E090E0AC0102C0440F551F6A95E2F786
:100B9000BA01622B62BB80E0089522B381E090E04D
:100BA000AC0102C0440F551F6A95E2F7BA01609587
:100BB000622362BB80E0089581E0089581E008959A
:100BC00081E0089580E00895843008F049C06830DD
:100BD00008F048C04115510509F446C08130B1F014
:100BE000813030F0823001F1833009F03FC02AC0FB
:100BF00089B390E09C0102C0359527956A95E2F78C
:100C0000B9016170FA01608380E0089586B390E0D5
:100C10009C0102C0359527956A95E2F7B90161708C
:100C2000FA01608380E0089583B390E09C0102C0E4
:100C3000359527956A95E2F7B9016170FA016083ED
:100C400080E0089580B390E09C0102C0359527951F
:100C50006A95E2F7B9016170FA01608380E0089556
:100C600081E0089581E0089581E0089580E008958D
:100C70008430A8F4813051F0813028F0823049F07E
:100C8000833079F409C06BBB80E0089568BB80E0D5
:100C9000089565BB80E0089562BB80E0089581E01F
:100CA000089580E00895843000F561157105F9F02C
:100CB000813061F0813028F0823069F08330C9F4EE
:100CC0000FC08BB3FB01808380E0089588B3FB01E4
:100CD000808380E0089585B3FB01808380E00895E0
:100CE00082B3FB01808380E0089581E0089581E074
:100CF000089580E008958430E8F4813061F0813017
:100D000028F0823069F08330B9F40FC08BB380953E
:100D10008BBB80E008958BB3809588BB80E00895FD
:100D200085B3809585BB80E0089582B3809582BBB2
:100D300080E0089581E0089580E00895843008F00F
:100D400045C0683008F044C08130B1F0813030F0E7
:100D5000823001F1833009F03DC02AC02BB381E01D
:100D600090E0AC0102C0440F551F6A95E2F7BA014A
:100D700062276BBB80E0089528B381E090E0AC016E
:100D800002C0440F551F6A95E2F7BA01622768BB9B
:100D900080E0089525B381E090E0AC0102C0440FEB
:100DA000551F6A95E2F7BA01622765BB80E0089596
:100DB00022B381E090E0AC0102C0440F551F6A9558
:100DC000E2F7BA01622762BB80E0089581E00895EE
:100DD00081E0089580E008959FBB8EBB6DBBE29AD1
:100DE000E19A8CB381FDFDCF80E008959FBB8EBB5F
:100DF000E09A8DB30895A1E21A2EAA1BBB1BFD0138
:100E00000DC0AA1FBB1FEE1FFF1FA217B307E407E9
:100E1000F50720F0A21BB30BE40BF50B661F771F41
:100E2000881F991F1A9469F7609570958095909521
:0E0E30009B01AC01BD01CF010895F894FFCFE6
:100E3E005365742050617373776F72643A00312D6D
:100E4E00204C6F67696E00322D20526573657400F9
:100E5E00436865636B2050617373776F72643A00F9
:100E6E0052696768742050617373776F72640053B0
:100E7E00616665204F70656E65640057726F6E67B0
:100E8E002050617373776F726400547269657320BA
:100E9E004C6566743A005361666520436C6F7365EA
:100EAE0064006F6C642050617373776F72643A00E4
:100EBE004E65772050617373776F72643A00577284
:100ECE006F6E672043686F69636500030303030059
:100EDE0001020302020202000102033738392F34E5
:0E0EEE0035362A3132332D23303D2B040400DB
:00000001FF
